:020000040000FA
:100000000C9463000C948B000C948B000C948B006C
:100010000C948B000C948B000C948B000C948B0034
:100020000C948B000C948B000C948B000C948B0024
:100030000C948B000C948B000C948B000C948B0014
:100040000C94BB080C948B000C942B090C940509A0
:100050000C948B000C948B000C948B000C948B00F4
:100060000C948B000C948B000000000025002800ED
:100070002B0000000000240027002A0000000000E0
:1000800023002600290004040404040404040202DA
:100090000202020203030303030301020408102007
:1000A0004080010204081020010204081020000012
:1000B0000008000201000003040700000000000027
:1000C00000005D090D0D11241FBECFEFD8E0DEBF8B
:1000D000CDBF22E0A2E9B1E001C01D92A33BB2076F
:1000E000E1F711E0A0E0B1E0E2EBF2E202C005903E
:1000F0000D92A239B107D9F710E0C2E6D0E004C0F2
:100100002197FE010E943A0FC136D107C9F70E941C
:10011000AE090C944C110C94000090E0FC01E255E7
:10012000FF4F2491FC01E656FF4F3491FC01EA5742
:10013000FF4FE491EE23C1F1222339F02330E9F09F
:1001400090F4213001F1223011F1F0E0EE0FFF1FA9
:10015000E458FF4FA591B491EC91E32381E090E046
:1001600029F580E008952730A9F02830C9F024301F
:1001700061F7809180008F7D03C0809180008F7730
:1001800080938000E2CF84B58F7784BDDECF84B5C5
:100190008F7DFBCF8091B0008F778093B000D5CF5B
:1001A0008091B0008F7DF9CF80E090E00895CF93EB
:1001B000DF9390E0FC01E656FF4F24918A579F4F52
:1001C000FC0184918823C9F090E0880F991FFC01FD
:1001D000EE58FF4FA591B491FC01E859FF4FC5912E
:1001E000D49161110DC09FB7F8948C912095822312
:1001F0008C938881282328839FBFDF91CF91089516
:10020000623051F49FB7F8943C91822F80958323FC
:100210008C93E8812E2BEFCF8FB7F894EC912E2B97
:100220002C938FBFEACF0F931F93CF93DF93EC01F3
:10023000062F142F688349831E821F821886198611
:100240001A8662E0802F0E94D70062E0812F0E9410
:10025000D700802F0E948D009B838A83812F0E946C
:100260008D009D838C83DF91CF911F910F91089515
:100270002FB7F8946091F2017091F3018091F4012D
:100280009091F5012FBF08950895AF92BF92CF923C
:10029000DF92EF92FF920F931F93CF93DF936C0146
:1002A0007B018B01040F151FEB015E01AE18BF0827
:1002B000C017D10759F06991D601ED91FC910190D9
:1002C000F081E02DC6010995892B79F7C501DF91F1
:1002D000CF911F910F91FF90EF90DF90CF90BF9043
:1002E000AF900895FC01538D448D252F30E0842F6D
:1002F00090E0821B930B541710F0CF96089501974E
:100300000895FC01918D828D981761F0A28DAE0F3A
:10031000BF2FB11D5D968C91928D9F5F9F73928FC1
:1003200090E008958FEF9FEF0895FC01918D828DED
:10033000981731F0828DE80FF11D858D90E00895BA
:100340008FEF9FEF0895FC01918D228D892F90E012
:10035000805C9F4F821B91098F739927089582E0DB
:1003600092E00E94A30121E0892B09F420E0822F72
:10037000089580E090E0892B29F00E94AF0181115F
:100380000C9400000895FC01A48DA80FB92FB11D95
:10039000A35ABF4F2C91848D90E001968F739927BB
:1003A000848FA689B7892C93A089B1898C91837099
:1003B00080648C93938D848D981306C00288F38992
:1003C000E02D80818F7D80830895EF92FF920F93BF
:1003D0001F93CF93DF93EC0181E0888F9B8D8C8DF1
:1003E00098131AC0E889F989808185FF15C09FB7E5
:1003F000F894EE89FF896083E889F98980818370A8
:10040000806480839FBF81E090E0DF91CF911F9156
:100410000F91FF90EF900895F62E0B8D10E00F5F77
:100420001F4F0F731127E02E8C8D8E110CC00FB64D
:1004300007FCFACFE889F989808185FFF5CFCE01E5
:100440000E94C301F1CFEB8DEC0FFD2FF11DE35A9C
:10045000FF4FF0829FB7F8940B8FEA89FB89808168
:100460008062CFCFCF93DF93EC01888D8823B9F0E2
:10047000AA89BB89E889F9898C9185FD03C08081AF
:1004800086FD0DC00FB607FCF7CF8C9185FFF2CF2C
:10049000808185FFEDCFCE010E94C301E9CFDF91BE
:1004A000CF910895FC01848195816817790754F4F0
:1004B000660F771F82819381680F791FFB0180810E
:1004C0009181089584E090E09783868390E080E0B6
:1004D00008950F931F93CF93DF938C01D0E0C0E07A
:1004E000F80184819581C817D9075CF4BE01C80161
:1004F0000E945202FC0180819181892B41F4219656
:10050000EFCF80E0DF91CF911F910F91089581E0AF
:10051000F9CFDC01ED91FC910190F081E02D60ECD0
:100520000994CF93DF93EC018E859F85DC01ED91DB
:10053000FC910484F585E02D09952C853D852330BB
:10054000310541F48C3D910541F08D3D910511F44B
:100550008BED90E0DF91CF91089580EC90E0FACFA1
:10056000DC011E968D919C91DC01ED91FC91068041
:10057000F781E02D0994CF93DF93EC018E859F8561
:10058000DC01ED91FC910190F081E02D603C71F473
:100590006BED09958E859F85DC01ED91FC910190B5
:1005A000F081E02D6CEDDF91CF9109946B3DD9F78F
:1005B00009958E859F85DC01ED91FC910190F0817C
:1005C000E02D6DEDF0CF0F931F93CF93DF93EC01F0
:1005D00003E010E08E859F85DC01ED91FC910284A3
:1005E000F385E02D0995282F4C855D854115510532
:1005F00059F48B3D19F41D870C87ECCF9927203CCB
:1006000081F48FEF9FEF0DC043305105D1F71D8668
:100610001C8680EC90E02C3D21F08BED90E02D3D90
:1006200081F7DF91CF911F910F910895EF92FF9283
:100630000F931F93CF93DF93EC0101E010E083E071
:10064000E82EF12C8E859F85DC01ED91FC910084D4
:10065000F185E02D0995882339F18C859D850097DA
:1006600089F18330910509F446C08130910509F084
:100670004EC08E859F85DC01ED91FC910484F5854B
:10068000E02D0995803C910509F043C082E090E09F
:100690009D878C878E859F85DC01ED91FC9102847E
:1006A000F385E02D09950BC08E859F85DC01ED91CA
:1006B000FC910484F585E02D0995019671F690E092
:1006C00080E01BC08E859F85DC01ED91FC91048448
:1006D000F585E02D09958B3D61F4FD86EC868E85D0
:1006E0009F85DC01ED91FC910284F385E02D099555
:1006F000A9CF803C49F081E090E0DF91CF911F913C
:100700000F91FF90EF9008951D870C87E8CF029717
:10071000B1F61D861C86D3CFEF92FF920F931F93E5
:10072000CF93DF937C01EB018B01040F151F90E049
:1007300080E0C017D10751F06991D701ED91FC918C
:100740000190F081E02DC7010995F3CFDF91CF91A2
:100750001F910F91FF90EF9008950F931F93CF93E8
:10076000DF93EC0188810E948D008C0189810E94B9
:100770008D00AC012A813B8180E02017310751F0C8
:100780008C819D812817390771F081E09A8591301D
:1007900009F481951B830A835D834C83DF91CF919C
:1007A0001F910F9108958FEFF1CF90E080E00895B1
:1007B0008F929F92AF92BF92CF92DF92EF92FF9271
:1007C0000F931F93CF93DF93CDB7DEB728970FB664
:1007D000F894DEBF0FBECDBF7C01FC0186819781FE
:1007E000892B09F0EBC0C7010E9469028111E6C0A4
:1007F000F70160817181FB0101900020E9F73197D9
:10080000E61BF70B8F010095109503701127AF01C0
:100810004F5F5F4F8FE992E00E948C0301501109F6
:1008200030F060E08FE992E00E94BB02F7CF6CE20B
:100830008FE992E00E94BB02D12CC12CF701048108
:100840001581C016D106DCF4B601C7010E94520220
:100850008C01F70186819781892B49F060E08FE94F
:1008600092E00E94BB02FFEFCF1ADF0AE7CFC70179
:100870000E9469028111F2CFF8016481F0CF0095E6
:100880001095037011270115110511F404E010E013
:100890000150110930F060E08FE992E00E94BB0244
:1008A000F7CFD12CC12CF70184819581C816D906C8
:1008B0000CF084C0B601C7010E9452028C01FC01F9
:1008C000848195818337910519F082369105D9F499
:1008D000F80142815381668177818FE992E00E941D
:1008E0008C03F801028113811195019511090370A0
:1008F00011270150110908F44CC060E08FE992E023
:100900000E94BB02F6CF8436910571F481858983FC
:1009100080858A8387818B8386818C8348E050E041
:10092000BE016F5F7F4F31C084379105B1F586817D
:1009300097812085B284A38494848584318539830A
:100940002A839B838C8389819A81AB81BC818D832F
:100950009E83AF83B88744E050E0BE016B5F7F4F5A
:100960008FE992E00E948C0389829A82AB82BC82DA
:1009700089819A81AB81BC818D839E83AF83B88747
:1009800044E050E0BE016B5F7F4F8FE992E00E9430
:100990008C03FFEFCF1ADF0A86CF84359105C9F3A8
:1009A00086349105B1F38185898380858A83878127
:1009B0008B8386818C8342815381B2CFC701289675
:1009C0000FB6F894DEBF0FBECDBFDF91CF911F9160
:1009D0000F91FF90EF90DF90CF90BF90AF909F90DE
:1009E0008F900895FC0180819181009711F00C9403
:1009F000DC0F08950F931F93CF93DF93EC01888151
:100A00009981009759F02A813B812617370730F0EA
:100A100081E0DF91CF911F910F9108958B016F5F5E
:100A20007F4F0E946510009759F0998388831B833C
:100A30000A832C813D81232B59F7FC011082E8CFDA
:100A400080E0E7CFEF92FF920F931F93CF93DF9356
:100A5000EC011F821E82F12CE12C8C819D81E81615
:100A6000F9060CF5B701CE010E9452028C010097E5
:100A7000B1F0FC0182819381181619066CF484810F
:100A800095818337910529F4868197810E94DC0F37
:100A900003C082369105C1F3C8010E94DC0FFFEF4D
:100AA000EF1AFF0ADACF8A819B810E94DC0F1B823A
:100AB0001A821D821C821986188660E170E08A8580
:100AC0009B850E9465109B878A87892B71F080E146
:100AD00090E09F878E871D861C86CE01DF91CF9187
:100AE0001F910F91FF90EF90089583E090E09F8316
:100AF0008E83F1CFEF92FF920F931F93CF93DF93EB
:100B0000FB0101900020E9F73197E61BF70BE1F0BC
:100B10007B018C01DC011496CD91DC91CE0FDF1F9F
:100B2000BE010E94FA04882381F0F80120813181FE
:100B300084819581B701820F931F0E942B11D801E8
:100B40001596DC93CE93149781E0DF91CF911F919E
:100B50000F91FF90EF900895EF92FF920F931F93E4
:100B6000CF93DF93EC017B01198218821B821A82DA
:100B70001D821C82FB0101900020E9F731978F0153
:100B8000061B170BB8010E94FA04288139818111D4
:100B900013C02115310519F0C9010E94DC0F19821B
:100BA00018821D821C821B821A82DF91CF911F91B5
:100BB0000F91FF90EF9008951D830C83B701C90139
:100BC000DF91CF911F910F91FF90EF900C942B111B
:100BD000EF92FF920F931F93CF93DF93EC017B0172
:100BE000FB0101900020E9F731978F01061B170BDD
:100BF000B8010E94FA0428813981811113C021159E
:100C0000310519F0C9010E94DC0F198218821D827A
:100C10001C821B821A82DF91CF911F910F91FF904E
:100C2000EF9008951D830C83B701C901DF91CF9127
:100C30001F910F91FF90EF900C942B11EF92FF9268
:100C40000F931F93CF93DF93EC017B0119821882DE
:100C50001D821C821F821E821B821A821B861A869C
:100C60001D861C861F861E8660E170E090E080E095
:100C70000E9465109B878A87892B29F180E190E08B
:100C80009F878E871D861C86198618868881998184
:100C90000E94DC0FF70101900020E9F7CF018E19C7
:100CA0009F090E94400F8C01009791F483E090E02F
:100CB0009F838E8319821882DF91CF911F910F91AC
:100CC000FF90EF90089583E090E09F838E83DACFCA
:100CD000B7010E942B1119830883EECF8F929F9248
:100CE000AF92BF92CF92DF92EF92FF920F931F933A
:100CF000CF93DF93CDB7DEB766970FB6F894DEBF1C
:100D00000FBECDBF8C016A017B016EE271E0CE01A6
:100D100041960E94AC0569E371E0CE0141960E94C4
:100D20007A050130110509F025C16FE371E0CE01AC
:100D300041960E947A050E9438010091A20110910B
:100D4000A3012091A4013091A5014B015C01801AFF
:100D5000910AA20AB30AA501940168E873E180E050
:100D600090E00E94180FB901330F880B990B0E9475
:100D70001C0DA70196010E947B0D6B017C0120E0F8
:100D800030E0A9010E94130F18165CF420E030E057
:100D900048EC51E4C701B6010E94150D18160CF07D
:100DA000D4C020E030E048EC51ECC701B6010E940D
:100DB000130F87FD0FC020E030E0A901C701B60185
:100DC0000E94150D87FF06C0C12CD12C18ECE12E16
:100DD00011ECF12E6091000170910101072E000CC1
:100DE000880B990B0E941C0DA70196010E947B0D98
:100DF0006B017C0160919E0170919F018091A00127
:100E00009091A1010E941C0D9B01AC01C701B6018C
:100E10000E94700E4B015C0120E030E0A9010E94AD
:100E2000130F18160CF098C020E030E04AE755E4A4
:100E3000C501B4010E94130F18160CF497C000915D
:100E40009C0110919D010130110551F40E9438015F
:100E50006093A2017093A3018093A4019093A501D4
:100E600081E090E00130110511F490E080E0909372
:100E70009D0180939C01C701B6010E94DD0E609325
:100E80009E0170939F018093A0019093A1016989B5
:100E90007A89CE0101960E941E068EE090E00E94A3
:100EA000400F8C01FC011182108286E690E0958350
:100EB000848384E090E093838283C682D782E08635
:100EC000F1866D817E816F5F7F4F660F771F8B810B
:100ED0009C810E946510009709F03CC183E090E07E
:100EE00098878F838091AD029091AE020E94890213
:100EF000CE0101960E94D8038091AD029091AE027E
:100F00000E94890289819A810E94DC0FCE0101969C
:100F10000E9422058B859C850E94DC0FCE014196A4
:100F20000E94F20466960FB6F894DEBF0FBECDBFE6
:100F3000DF91CF911F910F91FF90EF90DF90CF90B5
:100F4000BF90AF909F908F900895C12CD12CB8EC9A
:100F5000EB2EB1E4FB2E3ECF20E030E04AE755EC2B
:100F6000C501B4010E94150D87FF69CFC12CD12C9A
:100F7000760165CF0115110509F0CCC064E471E07C
:100F8000CE0141960E947A050E9438010091980195
:100F90001091990120919A0130919B014B015C01C4
:100FA000801A910AA20AB30AA501940168E873E1C4
:100FB00080E090E00E94180FB901330F880B990B65
:100FC0000E941C0DA70196010E947B0D20E030E0DD
:100FD00040E251E40E947B0D6B017C0120E030E097
:100FE000A9010E94130F18165CF420E030E048ECD1
:100FF00051E4C701B6010E94150D18160CF075C01A
:1010000020E030E048EC51ECC701B6010E94130F1C
:1010100087FD0FC020E030E0A901C701B6010E94A2
:10102000150D87FF06C0C12CD12CA8ECEA2EA1EC2F
:10103000FA2E6091020170910301072E000C880BBB
:10104000990B0E941C0DA70196010E947B0D6B015C
:101050007C0160919401709195018091960190912D
:1010600097010E941C0D9B01AC01C701B6010E94B3
:10107000700E4B015C0120E030E0A9010E94130FCB
:101080001816D4F520E030E44CE157E4C501B40172
:101090000E94130F1816D4F1009192011091930140
:1010A0000130110551F40E9438016093980170934A
:1010B000990180939A0190939B0181E090E0013027
:1010C000110511F490E080E09093930180939201D8
:1010D000C701B6010E94DD0E6093940170939501E3
:1010E0008093960190939701D2CEC12CD12CF8EC2D
:1010F000EF2EF1E4FF2E9DCF20E030E44CE157ECE1
:10110000C501B4010E94150D87FFC6CFC12CD12C9B
:101110007601C2CF0230110509F000CF8091B201F3
:10112000882389F06AE471E0CE0141960E94E805C7
:1011300020E030E040E850E4C701B6010E947B0D9A
:101140006B017C01A4CE6BE571E0CE0141960E945B
:10115000E8059DCE9C838B832D813E81A901440FA0
:10116000551F840F951FFC01118300832F5F3F4F94
:101170003E832D83B7CE1F920F920FB60F9211248C
:101180002F933F938F939F93AF93BF938091F201DF
:101190009091F301A091F401B091F5013091F1012A
:1011A00023E0230F2D3758F50196A11DB11D209383
:1011B000F1018093F2019093F301A093F401B093B5
:1011C000F5018091ED019091EE01A091EF01B091B8
:1011D000F0010196A11DB11D8093ED019093EE01E8
:1011E000A093EF01B093F001BF91AF919F918F91C8
:1011F0003F912F910F900FBE0F901F90189526E8EA
:10120000230F0296A11DB11DD2CF1F920F920FB6D0
:101210000F9211242F933F934F935F936F937F937C
:101220008F939F93AF93BF93EF93FF9382E092E0EE
:101230000E94C301FF91EF91BF91AF919F918F9158
:101240007F916F915F914F913F912F910F900FBEC2
:101250000F901F9018951F920F920FB60F921124A6
:101260002F938F939F93EF93FF93E0911202F0914E
:1012700013028081E0911802F091190282FD1BC0D7
:10128000908180911B028F5F8F7320911C028217C7
:1012900041F0E0911B02F0E0EE5FFD4F958F8093EF
:1012A0001B02FF91EF919F918F912F910F900FBE95
:1012B0000F901F9018958081F4CFE2E0F2E0138246
:1012C000128248EE53E060E070E044835583668309
:1012D00077838EE091E09183808385EC90E0958721
:1012E000848784EC90E09787868780EC90E0918BF0
:1012F000808B81EC90E0938B828B82EC90E0958BDD
:10130000848B86EC90E0978B868B118E128E138ED9
:10131000148EAFE9B2E013961C921E9212971496A7
:101320004D935D936D937C93179780E291E01196B6
:101330009C938E931F96FC93EE931E971D961C9282
:101340001E921C9762E771E08CEF91E00E94AC0561
:101350006AE771E086EF91E00C94AC05CF93DF93E0
:10136000CDB7DEB760970FB6F894DEBF0FBECDBF26
:10137000789484B5826084BD84B5816084BD85B570
:10138000826085BD85B5816085BD80916E0081607C
:1013900080936E0010928100809181008260809322
:1013A0008100809181008160809381008091800024
:1013B0008160809380008091B10084608093B1004F
:1013C0008091B00081608093B00080917A00846049
:1013D00080937A0080917A00826080937A00809175
:1013E0007A00816080937A0080917A00806880938F
:1013F0007A001092C100E091AD02F091AE02A08996
:10140000B18982E08C93A485B5851C92A685B785A9
:1014100080E18C93108EA489B58986E08C93A28993
:10142000B3898C9180618C93A289B3898C918860F7
:101430008C93A289B3898C9180688C930288F389FC
:10144000E02D80818F7D80838091AD029091AE02EE
:101450000E9489024091FA015091FB016091F601CE
:101460007091F7018FE992E00E948C038091AD02A8
:101470009091AE020E94890246E067E083ED91E020
:101480000E94130144E065E088EC91E00E941301A2
:1014900042E063E08DEB91E00E94130160E083E1A4
:1014A0000E94D70060E082E10E94D70060E081E105
:1014B0000E94D70055245394F3E76F2E712CABE0B4
:1014C000EA2EF12CB3E0CB2ED12C10E0212E10E02F
:1014D000312E8091E501811108C069E771E08FED3F
:1014E00091E00E94AC055092E50183ED91E00E94ED
:1014F000AD03082F88EC91E00E94AD03982E8DEB90
:1015000091E00E94AD03182F83E10E948D0020918D
:10151000B7013091B8018217930771F183E10E94FE
:101520008D00019711F50E9438012091B30130918F
:10153000B4014091B5015091B601621B730B840B4D
:10154000950B633371058105910578F08091B201A7
:1015500085258093B2010E9438016093B301709396
:10156000B4018093B5019093B60183E10E948D0090
:101570009093B8018093B70182E10E948D00209181
:10158000B0013091B10182179307A1F182E10E946D
:101590008D00019741F50E9438012091AC013091F6
:1015A000AD014091AE015091AF01621B730B840BF2
:1015B000950B6333710581059105A8F080910201B7
:1015C00090910301919581959109909303018093E6
:1015D00002010E9438016093AC017093AD018093C9
:1015E000AE019093AF0182E10E948D009093B10112
:1015F0008093B00181E10E948D002091AA01309179
:10160000AB0182179307A1F181E10E948D00019740
:1016100041F50E9438012091A6013091A701409127
:10162000A8015091A901621B730B840B950B6333C6
:10163000710581059105A8F080910001909101014B
:1016400091958195910990930101809300010E94E9
:1016500038016093A6017093A7018093A80190932D
:10166000A90181E10E948D009093AB018093AA01B2
:10167000992069F0692D990C770B880B990B0E94C2
:101680001C0DAB01BC0190E080E00E946E060023BF
:1016900069F0602F000F770B880B990B0E941C0DCF
:1016A000AB01BC0181E090E00E946E06112369F05D
:1016B000612F110F770B880B990B0E941C0DAB014A
:1016C000BC0182E090E00E946E068FE992E00E94E9
:1016D00016034C01181619065CF521E0821A9108D0
:1016E00038F18FE992E00E94E30289831A82009127
:1016F000E3011091E4010F5F1F4FB8018FED91E0FE
:101700000E94FA04882349F32091DF013091E0011F
:101710008091E3019091E401BE016F5F7F4F820FE2
:10172000931F0E942B111093E4010093E301D5CF86
:101730008091AB029091AC028230910509F0C8C053
:101740001092AC021092AB028091E3019091E401FF
:10175000892B09F0F5C00E9438016093B90170939C
:10176000BA018093BB019093BC011092DE0169E73E
:1017700071E0CE0101960E94AC058091DF0190914D
:10178000E001009709F40AC169817A816115710548
:1017900009F402C14091E1015091E2012D813E81A5
:1017A0004217530708F4F8C00E942B118D819E81C7
:1017B0009093E4018093E3011E821D82CE01019685
:1017C0000E94F2048090B9019090BA01A090BB01F0
:1017D000B090BC0181149104A104B10409F46CC05F
:1017E0000E943801DC01CB0188199909AA09BB09BB
:1017F0008938E3E19E07A105B10550F01092B901C7
:101800001092BA011092BB011092BC011092DE013D
:101810002091DE01211150C0853C9940A105B10500
:1018200008F44AC06DE771E0CE0101960E941E06E1
:101830008EE090E00E94400F8C01DC0111961C921A
:101840001E9215967C926E9214971396FC92EE92CD
:1018500012978BE090E00E94400F4C01009709F036
:10186000B4C0F801D182C082F801808191810397D0
:1018700009F0B5C083E090E098878F838091AD0236
:101880009091AE020E948902CE0101960E94D80377
:101890008091AD029091AE020E9489025092DE01C9
:1018A00089819A810E94DC0FCE0101960E94220557
:1018B0008B859C850E94DC0F2114310409F409CE2C
:1018C0000E94AF01882309F404CE0E94000001CEDB
:1018D000019709F077CF8091AD029091AE02DC01C3
:1018E000ED91FC910084F185E02D0995892BD1F0D3
:1018F0008091AD029091AE02DC01ED91FC910484E7
:10190000F585E02D0995803C09F01ACF8091AD0254
:101910009091AE02DC01ED91FC910284F385E02D03
:1019200009950ECF8091AD029091AE02DC01ED9150
:10193000FC910484F585E02D09950196C9F600CF48
:101940000091DF011091E0016091FC017091FD01B7
:10195000C8010E943211009709F4FDCE801B910B43
:10196000019609F4F8CE8091AD029091AE020E94EA
:1019700089024091FA015091FB016091F60170914A
:10198000F7018FE992E00E948C038091AD02909163
:10199000AE020E948902DFCE0E94DC0F89819A810B
:1019A0009093E0018093DF018B819C819093E20111
:1019B0008093E1018D819E819093E4018093E30106
:1019C0001A8219821C821B82F7CE67E871E00E949E
:1019D0002B11D80117969C928E92169745CF6D8148
:1019E0007E816F5F7F4F660F771F8B819C810E9486
:1019F0006510009709F43ECF9C838B832D813E8137
:101A0000A901440F551F840F951FDC010D931C93F2
:101A10002F5F3F4F3E832D8331CF86EF91E00E94B1
:101A2000F2048CEF91E00C94F2040E94570D08F43C
:101A300081E00895E89409C097FB3EF49095809565
:101A4000709561957F4F8F4F9F4F9923A9F0F92F84
:101A500096E9BB279395F695879577956795B79502
:101A6000F111F8CFFAF4BB0F11F460FF1BC06F5FE8
:101A70007F4F8F4F9F4F16C0882311F096E911C0FA
:101A8000772321F09EE8872F762F05C0662371F01B
:101A900096E8862F70E060E02AF09A95660F771F2F
:101AA000881FDAF7880F9695879597F90895990F0B
:101AB0000008550FAA0BE0E8FEEF16161706E80718
:101AC000F907C0F012161306E407F50798F0621B39
:101AD000730B840B950B39F40A2661F0232B242B0E
:101AE000252B21F408950A2609F4A140A6958FEF2D
:101AF000811D811D08950E948E0D0C94FF0D0E9482
:101B0000F10D38F00E94F80D20F0952311F00C949F
:101B1000E80D0C94EE0D11240C94330E0E94100E5F
:101B200070F3959FC1F3950F50E0551F629FF00130
:101B3000729FBB27F00DB11D639FAA27F00DB11D49
:101B4000AA1F649F6627B00DA11D661F829F2227D2
:101B5000B00DA11D621F739FB00DA11D621F839F59
:101B6000A00D611D221F749F3327A00D611D231F2F
:101B7000849F600D211D822F762F6A2F11249F577D
:101B800050409AF0F1F088234AF0EE0FFF1FBB1F80
:101B9000661F771F881F91505040A9F79E3F51053F
:101BA00080F00C94E80D0C94330E5F3FE4F3983E04
:101BB000D4F3869577956795B795F795E7959F5FE9
:101BC000C1F7FE2B880F911D9695879597F908957B
:101BD00097F99F6780E870E060E008959FEF80ECE0
:101BE000089500240A941616170618060906089583
:101BF00000240A9412161306140605060895092EE9
:101C00000394000C11F4882352F0BB0F40F4BF2B57
:101C100011F460FF04C06F5F7F4F8F4F9F4F089597
:101C200057FD9058440F551F59F05F3F71F047958D
:101C3000880F97FB991F61F09F3F79F08795089572
:101C4000121613061406551FF2CF4695F1DF08C091
:101C5000161617061806991FF1CF869571056105AE
:101C600008940895E894BB2766277727CB0197F956
:101C700008952F923F924F925F926F927F928F9230
:101C80009F92AF92BF92CF92DF92EF92FF920F930B
:101C90001F93CF93DF93CDB7DEB7CA1BDB0B0FB615
:101CA000F894DEBF0FBECDBF09942A8839884888D2
:101CB0005F846E847D848C849B84AA84B984C88468
:101CC000DF80EE80FD800C811B81AA81B981CE0F5F
:101CD000D11D0FB6F894DEBF0FBECDBFED01089544
:101CE0005058BB27AA270E94880E0C94FF0D0E9413
:101CF000F10D38F00E94F80D20F039F49F3F19F4EF
:101D000026F40C94EE0D0EF4E095E7FB0C94E80D30
:101D1000E92F0E94100E58F3BA1762077307840761
:101D2000950720F079F4A6F50C94320E0EF4E095A8
:101D30000B2EBA2FA02D0B01B90190010C01CA0185
:101D4000A0011124FF27591B99F0593F50F4503E30
:101D500068F11A16F040A22F232F342F4427585F22
:101D6000F3CF469537952795A795F0405395C9F73A
:101D70007EF41F16BA0B620B730B840BBAF09150F2
:101D8000A1F0FF0FBB1F661F771F881FC2F70EC091
:101D9000BA0F621F731F841F48F487957795679564
:101DA000B795F7959E3F08F0B0CF9395880F08F050
:101DB0009927EE0F9795879508950E94E40E6894F1
:101DC000B1110C94330E08950E94180E88F09F579D
:101DD00098F0B92F9927B751B0F0E1F0660F771F4F
:101DE000881F991F1AF0BA95C9F714C0B13091F045
:101DF0000E94320EB1E008950C94320E672F782FB6
:101E00008827B85F39F0B93FCCF386957795679509
:101E1000B395D9F73EF490958095709561957F4F75
:101E20008F4F9F4F08950E94570D08F48FEF08952C
:101E3000A1E21A2EAA1BBB1BFD010DC0AA1FBB1FCE
:101E4000EE1FFF1FA217B307E407F50720F0A21B40
:101E5000B30BE40BF50B661F771F881F991F1A94AD
:101E600069F760957095809590959B01AC01BD01D7
:101E7000CF010895EE0FFF1F0590F491E02D099416
:101E80000F931F93CF93DF938230910510F482E07C
:101E900090E0E091B102F091B20230E020E0B0E0D9
:101EA000A0E0309799F42115310509F44AC0281BA8
:101EB000390B24303105D8F58A819B816115710574
:101EC00089F1FB0193838283FE0111C0408151811E
:101ED0000281138148175907E0F04817590799F410
:101EE000109761F012960C93129713961C933296EA
:101EF000CF01DF91CF911F910F9108950093B1020F
:101F00001093B202F4CF2115310551F04217530757
:101F100038F0A901DB019A01BD01DF01F801C1CF51
:101F2000EF01F9CF9093B2028093B102CDCFFE01C1
:101F3000E20FF31F81939193225031093983288353
:101F4000D7CF2091AF023091B002232B41F42091E2
:101F50000601309107013093B0022093AF02209127
:101F60000401309105012115310541F42DB73EB72B
:101F70004091080150910901241B350BE091AF02FB
:101F8000F091B002E217F307A0F42E1B3F0B2817C5
:101F9000390778F0AC014E5F5F4F2417350748F0E2
:101FA0004E0F5F1F5093B0024093AF028193919305
:101FB0009FCFF0E0E0E09CCFCF93DF930097E9F074
:101FC000FC01329713821282A091B102B091B20249
:101FD000ED0130E020E01097A1F420813181820FE3
:101FE000931F2091AF023091B0022817390709F0F2
:101FF00061C0F093B002E093AF02DF91CF910895FA
:10200000EA01CE17DF07E8F54A815B819E014115A1
:102010005105B1F7E901FB83EA8349915991C40F56
:10202000D51FEC17FD0761F4808191810296840F22
:10203000951FE90199838883828193819B838A8399
:10204000F0E0E0E012968D919C9113970097B9F51E
:102050002D913C911197CD010296820F931F2091F3
:10206000AF023091B0022817390739F6309751F591
:102070001092B2021092B102B093B002A093AF02DC
:10208000BCCFD383C28340815181840F951FC81771
:10209000D90761F44E5F5F4F88819981480F591FBE
:1020A000518340838A819B819383828321153105EB
:1020B00009F0B0CFF093B202E093B1029ECFFD01E0
:1020C000DC01C0CF13821282D7CFB0E0A0E0EBE6F4
:1020D000F0E10C943B0E8C01009751F4CB010E946F
:1020E000400F8C01C801CDB7DEB7E0E10C94570E6C
:1020F000FC01E60FF71F9C0122503109E217F3079C
:1021000008F49DC0D901CD91DC911197C617D7076E
:1021100098F0C530D10530F3CE01049786179707A4
:1021200008F3C61BD70B2297C193D1936D937C9371
:10213000CF010E94DC0FD6CF5B01AC1ABD0A4C0167
:102140008C0E9D1EA091B102B091B202512C412C77
:10215000F12CE12C109731F58091AF029091B002F3
:102160008815990509F05CC04616570608F058C056
:102170008091040190910501009741F48DB79EB7BD
:102180004091080150910901841B950BE817F9074C
:1021900008F055C0F093B002E093AF02F9017183EB
:1021A0006083A0CF8D919C91119712966C9012979D
:1021B00013967C901397A815B90559F56C0142E068
:1021C000C40ED11CCA14DB0420F1AC014A195B090E
:1021D000DA011296159780F06282738251834083F0
:1021E000D9016D937C93E114F10471F0D70113963A
:1021F000FC93EE93129776CF22968C0F9D1FF901D8
:1022000091838083F301EFCFF093B202E093B102A8
:1022100069CF4816590608F42C017D01D3019ACFE5
:10222000CB010E94400F7C01009749F0AE01B8013C
:102230000E942211C8010E94DC0F870153CF10E0D9
:1022400000E050CFFB01DC0102C001900D92415033
:102250005040D8F70895FB01DC0101900D92002059
:10226000E1F70895FB0151915523A9F0BF01DC016D
:102270004D9145174111E1F759F4CD01019000202E
:1022800049F04D9140154111C9F3FB014111EFCFC8
:1022900081E090E00197089510E0C2E6D0E004C02C
:1022A000FE010E943A0F2196C336D107C9F7F89470
:1022B000FFCF010001000000B30280000000000019
:1022C000E501450172013202A3018101950100007F
:1022D0000000BB028C03D503B0021603E302910297
:1022E0002F656F732F776865656C002F66696E6563
:1022F000002F70616E002F74696C74002F656F730E
:102300002F776865656C2F6C6576656C002F656F3F
:10231000732F776865656C2F636F617273652F69C2
:10232000726973004554434F53433F004F4B002F96
:10233000656F732F70696E6700626F78315F6865D3
:042340006C6C6F0052
:107E0000112484B714BE81FFF0D085E080938100F7
:107E100082E08093C00088E18093C10086E0809377
:107E2000C20080E18093C4008EE0C9D0259A86E02C
:107E300020E33CEF91E0309385002093840096BBD3
:107E4000B09BFECF1D9AA8958150A9F7CC24DD24C4
:107E500088248394B5E0AB2EA1E19A2EF3E0BF2EE7
:107E6000A2D0813461F49FD0082FAFD0023811F036
:107E7000013811F484E001C083E08DD089C08234E0
:107E800011F484E103C0853419F485E0A6D080C0E4
:107E9000853579F488D0E82EFF2485D0082F10E0AE
:107EA000102F00270E291F29000F111F8ED06801E7
:107EB0006FC0863521F484E090D080E0DECF843638
:107EC00009F040C070D06FD0082F6DD080E0C81688
:107ED00080E7D80618F4F601B7BEE895C0E0D1E017
:107EE00062D089930C17E1F7F0E0CF16F0E7DF06D8
:107EF00018F0F601B7BEE89568D007B600FCFDCFD4
:107F0000A601A0E0B1E02C9130E011968C91119780
:107F100090E0982F8827822B932B1296FA010C0160
:107F200087BEE89511244E5F5F4FF1E0A038BF0790
:107F300051F7F601A7BEE89507B600FCFDCF97BE46
:107F4000E89526C08437B1F42ED02DD0F82E2BD052
:107F50003CD0F601EF2C8F010F5F1F4F84911BD097
:107F6000EA94F801C1F70894C11CD11CFA94CF0C13
:107F7000D11C0EC0853739F428D08EE10CD085E9AC
:107F80000AD08FE07ACF813511F488E018D01DD067
:107F900080E101D065CF982F8091C00085FFFCCF94
:107FA0009093C60008958091C00087FFFCCF809118
:107FB000C00084FD01C0A8958091C6000895E0E648
:107FC000F0E098E1908380830895EDDF803219F02E
:107FD00088E0F5DFFFCF84E1DECF1F93182FE3DFCA
:107FE0001150E9F7F2DF1F91089580E0E8DFEE27F6
:047FF000FF270994CA
:027FFE00040479
:00000001FF
